:020000040000FA
:1000000049EF00F0F76A140FF66E000EF7220900B0
:10001000F55012000D0A53696E79616C69204261D6
:10002000736C61746D616B206963696E204220742A
:100030007573756E6120626173696E697A00F76A23
:100040004E0FF66E000EF7220900F55012000A312D
:1000500020687A2073696E79616C20616B746966BF
:10006000206564696C64690D0000EA6A070EE96E38
:10007000EF500EE0030E016E006A002EFED7012E37
:10008000FBD73C0E006E002EFED700D0EF2EF2D72D
:10009000000CF86AD09EEA6AE96A400EAF6EA60EBE
:1000A000AC6E900EAB6EC180C182C184C196C1801E
:1000B000C182C184C196C2909698C69A949A948837
:1000C0009496000EC66EC76E880ED56ECD6A000E71
:1000D000CA6E000ECB6E066A065094DF062A006ECA
:1000E00000509EA8FED7AD6E290E065CF5E19EAAD3
:1000F000FED7AE5062081FE1066A0650A0DF062A4E
:10010000006E00509EA8FED7AD6E1A0E065CF5E19B
:1001100093908A80020E066EFA0E076EA6DF062EF8
:10012000FBD793908A90020E066EFA0E076E9DDF43
:0A013000062EFBD7EDD7CFD7030052
:020000040030CA
:0E00000000220D0E000185000FC00FE00F4022
:00000001FF
;PIC18F452
